:020000040000FA
:1000000040152020D5000000D9000000DB000000D2
:1000100000000000000000000000000000000000E0
:10002000000000000000000000000000DD000000F3
:100030000000000000000000DF000000E100000000
:10004000E300000039120000E3000000E3000000BC
:10005000E3000000E3000000E3000000E300000014
:1000600000000000E3000000E300000000000000CA
:1000700000000000E3000000E3000000E3000000D7
:1000800029210000E3000000E3000000E30000007D
:10009000E3000000E300000000000000000000009A
:1000A000E3000000E300000000000000000000008A
:1000B000E300000000000000E3000000E300000097
:1000C0000348854600F0ECFB00480047A5240000EB
:1000D0004015202003480047FEE7FEE7FEE7FEE765
:1000E000FEE7FEE7C1000000D2B201E00270401C52
:1000F000491EFBD270470022F6E710B513460A46A8
:1001000004461946FFF7F0FF204610BDF8B5024639
:100110004A40D40F42004B0052085B089A4202D278
:100120000246084611464A0023D0C30D4A00DDB2FC
:10013000120EAD1A202D35DA49020126490AF605BC
:100140008A19002C00D0524220214F1B1146B94081
:100150002A411018C20D9A4221D0002C17D0012D2F
:1001600008DCDA05801AD20F8019D207DBB200F062
:1001700018FAF8BDDA05801A012340001B06C018E2
:1001800080185A428018CA0F1043490007E04908F6
:10019000C2071143DA05801A80194008801800F060
:1001A000F8F9F8BD61000122511A001BF7E701229E
:1001B000D2075140AAE70122D2075040A6E70246E3
:1001C00070B54A40D30FDB0740002DD04A002AD03B
:1001D000010E140E000212020919400A520A841874
:1001E000E50104465443000A120A2E045043A419A0
:1001F0004219200CC543AA18120C0125AD03521C4C
:10020000521912047F39240400D0521C104301D427
:100210004000491EC2B20C06C0092018401C40080C
:10022000802A02D003E0002070BD40084000002971
:1002300000DA0020184370BDF0B51FB488B00B99E8
:100240000998002448400999C00F490049080991BC
:10025000C0070B990090490049080B91099908982B
:10026000A64608431CD00B990A98084318D0099851
:1002700001244000420D4800410D09982405000367
:10028000000B204309900B980003000B20430B90B8
:1002900050181C494018002201901446104605E0F1
:1002A000002001460DB0F0BD032801DA034600E04E
:1002B00003239C46C11A0AAE0AE05F0008ADED5B5D
:1002C0004F00F75B7D430027AA187C41491C5B1E49
:1002D0006145F2DD410004AB5A522104120C0A437D
:1002E000240C401C0828DFDB01980290009970461E
:1002F00001910090059B049A0799069800F097F9E0
:10030000D0E700000DFCFFFFF0B50C465C4085B067
:10031000E40FE40703944C00002664085900944657
:10032000490802460296224321D062460A431ED063
:100330006200570D4A000E032303550D01240246A7
:100340002C492405781B1B0B360B401823432643EE
:10035000614600901C46501AB44103D30098401CDB
:10036000009002E0921800985B41002803DA002018
:10037000014605B0F0BD002001210905074686466B
:1003800011E064461D46141BB54106D36546521B59
:10039000B341744607430C43A646CD0740084908BD
:1003A000284392185B4105460D43EAD11046184395
:1003B00013D06046194650407140084306D060464D
:1003C000101AB34106D20122002306E000220123C5
:1003D000DB0702E00122D243531000987446010566
:1003E000381C6141029C039D0019694100F012F91B
:1003F000BFE70000FD0300000122D207002800DB58
:10040000101A002900DB511A814201D801207047DF
:10041000002070470122D207002800DB101A0029B3
:1004200000DB511A814201D2012070470020704741
:100430000122D207002800DB101A002900DB511A24
:10044000814201D30120704700207047C217C10FBD
:10045000504010B54018CA079623002100F0A1F8BB
:1004600010BDC20F410040020123400ADB05D20744
:10047000090EC0187F2901DA00207047962903DC95
:100480009623591AC84001E096398840002AF4D0D2
:1004900040427047C20FD207400040080BD0C10D48
:1004A0000723DB01C91840020905400A1143C208AD
:1004B000400711437047002001467047CB0FDB0710
:1004C000490010B5490802460A4307D00A0D07241F
:1004D0000903E401090B121B002A01DC002010BDF6
:1004E000C900440F0C43C100E018D205801800F089
:1004F00050F810BD70B50446002903D0002020221A
:10050000012310E0002801D00020C043C046C046AF
:100510000DE02546D5408D4205D30D469540641B20
:100520001D46954040191546521E002DF1DC21460E
:1005300070BDF0B51FB40646002082B005464024C9
:10054000019100901BE0019922460F46304600F0D1
:10055000CFF9049A059B801A994110D31046194689
:10056000224600F0B5F9361A8F4101972246012044
:100570000021009F00F0ACF938184D410090204652
:10058000641E0028DFDC019B00982946324607B034
:10059000F0BD002904DA401C490001D140084000A8
:1005A000704770B40024050C05D11024000402D15A
:1005B000002921D01124050E01D100020834050FB5
:1005C00001D10001241D850F01D18000A41C002849
:1005D00001DB4000641C002908D020252E1B0D469D
:1005E000F540A14000D001212943084301061B1B0F
:1005F000000ADB1D02D5002070BC7047DB0518180F
:1006000080180029F8DA401C4900F5D170BC400878
:100610004000704710B5002B08DA0024401C6141EF
:1006200092185B411A4301D14008400010BDF0B55B
:100630001FB482B005460C0003D0084602F05EF9F4
:1006400002E002F05BF92030024600902146284685
:1006500000F03EF9049B059A04460F4618431143E7
:10066000084314D0184610431BD0009840210A1AA2
:100670001846059900F03CF905460E46009A059982
:10068000049800F025F9084305D0012004E0204635
:10069000394607B0F0BD0020C11705430E432C4377
:1006A000374300990E986305401A7905E40A002241
:1006B0000C43FD0A0A3002D500200146E9E7010596
:1006C000101969410C9C0D9D00196941FFF7A2FFAB
:1006D000DFE70000F0B507460846584087B0C00F76
:1006E000049048000E46590040084908BC1A884149
:1006F00005D2384631461E4617460B46024658007C
:10070000400810434CD0300D039040055900400D77
:10071000490D0590401A0290402872DA1803012111
:10072000000B09050843019004980092002805D0A9
:100730000199524200208841009201900298402184
:100740000A1A0199009800F0C3F805460C466B465A
:1007500007CB00F0DEF8C0197141039A0E0D00239B
:10076000D71756401A467A40164344D0049A002AB6
:100770002DD0029A012A039A15DC1205C01A914164
:1007800001263605001C7141D20F059ED207009349
:10079000019202962A462346FFF749FF07B0F0BDB3
:1007A00038463146FAE71605224A0F46B218C01AF3
:1007B000B74101210905001C4F4100187F41114636
:1007C00018187941E20F10436D19644113E0E207F4
:1007D0006D0815436408C2071443039A01261205E5
:1007E000C01A91413605001C7141CE0740083043C4
:1007F0004908C01851412A462346FFF70BFFCDE7B1
:10080000FFE7049801224000C117121A00238B4110
:1008100004983146C417381AA141EEE730B40124D8
:10082000E407634030BC55E730B40124E40761407D
:1008300030BC4FE70000E0FF4A0009030123090B29
:100840001B0519430A4B10B5520D9A4202DA0020DB
:10085000014610BD064B34339A4203DC9A1A00F06D
:1008600047F810BD034BD21800F032F810BD00005D
:10087000FF030000CDFBFFFF10B5002904DB0124BE
:10088000E40740428C412146002B04DB1C46012337
:10089000DB075242A341994200D1904210BD0000B3
:1008A0001CB5094800900948019005460126009CA6
:1008B00005E0E36807CC33430C3C98471034AC4266
:1008C000F7D3FFF701FC0000183D0000383D0000A1
:1008D00010B5202A04DB0146203A9140002010BDCB
:1008E000914020239C1A0346E3401943904010BDD9
:1008F00010B5202A04DB0846203AD040002110BD64
:100900000B46D340D0402024A21A914008431946F8
:1009100010BD10B5202A06DBCB170846203A10413F
:10092000C1170B4306E00B461341D0402024A21A06
:1009300091400843194610BD811E091F00BFFCD21B
:10094000704784B003900291019203980068009070
:10095000009801998843009000980299019A1140EB
:1009600008430399086004B07047000082B001900A
:100970000091009B0199094A88581843885002B099
:100980007047C04682B001900091009B0199034AD4
:1009900088581843885002B07047C046481000007D
:1009A00082B00190009100980199952252018850DF
:1009B00002B0704782B00190009100980199952291
:1009C0005201885002B0704782B0019000910098A7
:1009D000019995225201885002B0704782B001906F
:1009E00000910098019995225201885002B07047F9
:1009F00081B00090009881004C4A885801235B0622
:100A00001843885001B0704782B001900091009B5C
:100A10000199034A88581843885002B07047C0466D
:100A20002810000082B00190009100980199024ABC
:100A3000885002B07047C046D012000081B00090CC
:100A400000990120C2020248885001B07047C04698
:100A50000100002682B0019000910198024940589F
:100A60000099084002B070473810000081B0009033
:100A7000009881002D4A0D48885001B07047C0464B
:100A800010B584B0069C03900291019200930298E5
:100A9000019908430099084306990843034908430C
:100AA00003998900214A885004B010BD81000400D8
:100AB00081B00090009881001C4A8120885001B0CC
:100AC0007047C04682B001900091009810490843D9
:100AD00001998900154A885002B0704710B584B05A
:100AE000079C069C03900291019200930298019941
:100AF00008430099084306990843079908430449A5
:100B0000084303998900094A885004B010BDC046C3
:100B10008000040082B00190009100988021084379
:100B200001998900014A885002B070470480424010
:100B300082B00190009101982721C9014058009985
:100B4000084002B0704782B00190009101982721BF
:100B5000C90140580099084002B0704781B0009028
:100B60000099024A0248885001B07047040800000A
:100B7000030000B182B001900091009B0199034AEB
:100B800088581843885002B07047C0469013000040
:100B900082B00190009100980199074A885002B0F4
:100BA0007047C04682B00190009100980199024AB6
:100BB000885002B07047C0469012000082B0019089
:100BC0000091009B01999D2042018858184388504C
:100BD00002B0704782B00190009100980199024ADA
:100BE000885002B07047C046B0120000F0B584B023
:100BF00001242202344B196803929143196056492B
:100C00000D686D04FCD5457E25409E69A643741988
:100C10009C612024045D03252C40DE69AE43341919
:100C2000DC611F4C256805262660466A37681F620E
:100C300076685E6207262E402660C4697F252D02F5
:100C4000DE69AE436406640C3419DC6107684568EC
:100C500082680092C66802690192426902929A69AA
:100C6000104C14403A07120B2D03ADB2AA183243B0
:100C7000009D2D072D0D1543019A1543029A15432A
:100C8000007E2843084A0240101998611868039AA8
:100C90001043186008688005FCD504B0F0BDC0465C
:100CA000001340408D00F0FF72FF0F0006490868F6
:100CB000012290430860704703490868012212022C
:100CC000904308607047C04608010B4081B0014660
:100CD0006846017000780249086001B07047C0465C
:100CE00008030B4080B582B0014601A8018001884D
:100CF0000F2002021748FFF724FE02B080BDC04655
:100D000080B582B0014601A8017001780248032233
:100D1000FFF717FE02B080BD00010B4080B582B026
:100D2000014601A8017001780A483022FFF709FE48
:100D300002B080BD07498860074802689202FCD56E
:100D4000012212040B6813430B600168C906FCD52D
:100D50007047C04604010B4004020B400949086873
:100D6000052210430860704781B0009005490420B7
:100D700008600098401E044908600449002008608B
:100D800001B0704710E000E014E000E018E000E07F
:100D900070B582B00B794A79002A25D0184A202BE9
:100DA00002D00524E40100E0584C8218002B00D149
:100DB0008824156C544E35402D191564556C3540FA
:100DC0002C19546414688F4D2C40146054682C40C6
:100DD00054600024146254628F24E443156D25404E
:100DE0001565556D254055656A4613718B795371AC
:100DF00009680091114600F02FF802B070BDC0469E
:100E00003818000081B000900099CD4A0120885028
:100E100001B0704782B001900091009B0199034A94
:100E200088581843885002B07047C0462810000008
:100E300081B0009000990120C202A948885001B0F9
:100E40007047C04681B00090009881214901405808
:100E5000C0B201B070470000F0B5684A8218294B53
:100E6000C318087920280DD000281DD10C68641EF5
:100E70005460D56E244C25408835D56616467036AC
:100E800088251DE00C68641E5460D46E1E4D2C40F5
:100E90001E4EA419D466146F2C40A41914670124A3
:100EA00065071B4C16460BE00C6864085460D66E50
:100EB000154C26400525ED017619D6661646703686
:100EC000376827402F433760D46A4E4D2C40D46298
:100ED000146B2C4014630024D46414658F24E44301
:100EE000D56F2540D5671D6825401D6049790143B0
:100EF000BD2008401168074B0B40C018801C1060D3
:100F0000F0BDC0468418000024493E0001040000E2
:100F1000FFFFFFCF4000FFCFB0B54A68364BC2504D
:100F2000364A80180A78222A58D8930001A4E35838
:100F30009F46C046D30F0000DD0F0000D30F000016
:100F4000DD0F0000DD0F0000DD0F0000DD0F0000F1
:100F5000DD0F0000DD0F0000DD0F0000DD0F0000E1
:100F6000DD0F0000DD0F0000DD0F0000DD0F0000D1
:100F7000DD0F0000C10F0000DD0F0000C10F0000F9
:100F8000DD0F0000DD0F0000DD0F0000DD0F0000B1
:100F9000DD0F0000DD0F0000DD0F0000DD0F0000A1
:100FA000DD0F0000DD0F0000DD0F0000DD0F000091
:100FB000DD0F0000C10F0000DD0F0000C10F0000B9
:100FC00003231B0704689C4301235B07E3180360AA
:100FD00004E003231B0704689C4304600B69C3609F
:100FE000CB68074C1C40C36A064D1D402B19C362D9
:100FF000097A11430160B0BD081800000418000010
:10100000777702008888FDFF81B000900099514AEF
:101010005148885001B0704782B00190009100980B
:10102000019911221202885002B0704710B50723AF
:101030009B04194092008018024A84589C4361180E
:10104000815010BD3018000010B5029CA40000199A
:1010500011431943014A815010BDC0465018000089
:1010600092008018014A81507047C0461018000055
:1010700010B50122120383180C789C604B788350C2
:101080008978674A815010BD81B000900099112085
:101090000202885801231843885001B0704781B07C
:1010A0000090009911200202885801235B04184324
:1010B000885001B0704781B0009000991120020261
:1010C000885804231843885001B0704781B00090BD
:1010D00000990120C2020248885001B07047C04602
:1010E00001000026B0B51122120283580124A34347
:1010F00083500B888C781C438B882343094C1C40FD
:101100008358094D1D40631983508B79CC791C435A
:10111000097A21437E231940801842689A43511866
:101120004160B0BD18670000E798FDFF81B00090F6
:101130000098404940580121084001B07047C0461E
:101140000811000081B000900099024A02488850BE
:1011500001B0704704080000030000B180B584B0FE
:1011600003900291019203980B49401802990B4A8F
:10117000FFF7E7FB03980A49401801993F22FFF760
:10118000E0FB0399074A8818895801221140FFF7AC
:10119000D8FB04B080BDC04610110000FFFF000066
:1011A000141100000411000010B50122120383186D
:1011B0000C789C604978815010BD80B582B0019058
:1011C0000091019811210902401800990322D203CD
:1011D000FFF7B7FB02B080BD80B584B00191014636
:1011E0000198039102A9087003980D4A80180978A4
:1011F0007022FFF7A6FB04B080BDC04680B584B066
:10120000019101460198039102A908700398044ACC
:10121000801809780722FFF794FB04B080BDC04610
:101220000C110000034A801802681206FCD4816188
:101230007047C0460811000080B500F001F880BD7D
:1012400080B582B0032041063F48FFF703FC3F49C9
:1012500001910860112001053D48FFF7FBFB0146A5
:1012600001983C4A1160C0788007002813D5FFE739
:10127000012081063448FFF766FC002805D1FFE70E
:1012800035490868401E086004E033490868401C7E
:101290000860FFE719E02D48C0784007002813D503
:1012A000FFE7012041062848FFF74DFC002805D143
:1012B000FFE729490868401C086004E026490868DF
:1012C000401E0860FFE7FFE7FFE722488078C0067E
:1012D000002813D5FFE7012001061D48FFF733FC66
:1012E000002805D1FFE71D490868401E086004E09A
:1012F0001A490868401C0860FFE719E01548C078E3
:10130000C007002813D0FFE701200105F648FFF7CA
:101310001AFC002805D1FFE710490868401C086046
:1013200004E00E490868401E0860FFE7FFE7FFE79A
:10133000032041060448FFF725FB11200105EA4878
:10134000FFF720FB02B080BD00000A4030052020DE
:1013500000200A4034052020180020201C002020F6
:1013600080B594B0139012911399344800900160A5
:10137000129941600068FFF769F8014600981191E1
:1013800040684042FFF762F8109011982C49019193
:10139000FEF715FFFFF77EF82A4A02922A4B0393C5
:1013A000FEF74AFF00220492284B0593FEF7ACFF9C
:1013B000FFF784F801990F901098FEF700FFFFF7F0
:1013C00069F8029A039BFEF737FF049A059BFEF724
:1013D0009BFFFFF773F80E900F9806901C480C9037
:1013E00000681C490891FEF7EAFE0146069807913D
:1013F00019490991FEF7E3FE0799FEF787FE089960
:101400000C9A10600E980A9014480D900068FEF730
:10141000D6FE099902460A980B92FEF7D0FE0B9968
:10142000FEF774FE0C9902460D9802600968944A12
:10143000116000689149086014B080BD64042020E8
:101440000000C8426B195F6A3AF1CA3F00C086408B
:10145000200020209A99193FCDCCCC3E240020209A
:1014600080B58CB00A90099109980A99FEF79FFE01
:1014700001462F48016000680021FEF7BDFF0028EB
:1014800004D1FFE72A480068079006E02848006872
:101490000121C90748400790FFE70798089008987E
:1014A0005B49FEF7C5FF00280AD1FFE72048006826
:1014B0002049086020480068FEF7D3FF0B9034E015
:1014C0005448006802901A48049000680090194936
:1014D00005910968FEF76BFE009901904F4800687E
:1014E000FEF76DFE0199024602980392FEF767FE31
:1014F0000399FEF70BFE01460F4806900068FEF7C1
:1015000005FE0499059A0346069803600968116070
:1015100000684449444A00F0BDFB0146069801605A
:101520000068FEF79EFF0B90FFE70B980CB080BDA4
:10153000280020202C0020203000202080B58CB0F6
:101540000A90099109980A99FEF731FE01462F4841
:10155000016000680021FEF74FFF002804D1FFE77B
:101560002A480068079006E0284800680121C9075A
:1015700048400790FFE70798089008982449FEF72D
:1015800057FF00280AD1FFE7204800682249086079
:1015900023480068FEF765FF0B9034E01D480068A3
:1015A00002901A480490006800901B490591096850
:1015B000FEF7FDFD0099019018480068FEF7FFFD59
:1015C0000199024602980392FEF7F9FD0399FEF78E
:1015D0009DFD0146124806900068FEF797FD0499AC
:1015E000059A0346069803600968116000680D4972
:1015F0000D4A00F04FFB0146069801600068FEF7B7
:1016000030FF0B90FFE70B980CB080BD340020201A
:101610000AD7A33B140020203800202010002020EF
:101620003C00202000C0F34500C0F3C580B582B067
:10163000322000F031FE014601A801700078012837
:1016400017D1FFE70C4801684A4251410160006828
:10165000002807D1FFE709497F20C00588600849B5
:10166000886005E005490020886005498860FFE73B
:10167000FFE702B080BDC0460400202054002020B7
:101680004400202080B582B0014601A80180008876
:10169000002803D1FFE700F017F810E00949088897
:1016A000401C088080B201A90988884206D1FFE762
:1016B00000F012F8034900200880FFE7FFE702B0BE
:1016C00080BDC0464000202080B5012041028A48EC
:1016D000FFF77AF980BDC04680B5012041028648F7
:1016E000FFF778FA80BDC04600200A4080B582B07E
:1016F00001A900200870FFE701A8007807281EDC78
:10170000FFE7694600200870FFE7684600787F28F9
:101710000FDCFFE768460078C1009648411801A831
:10172000027800208854FFE70098401C6946087042
:10173000EBE7FFE70198401C01A90870DCE700F027
:10174000DDF802B080BDC04686B0034605A8037030
:1017500004AB197003A90A706A4600211170007861
:101760007F2805DCFFE704A80078402801DBFFE7BD
:101770002DE004A90878C2080720821A02AB1A706B
:101780000A78024001A90A700978411A01208840AC
:101790006946087003A8007800280CD0FFE7009B7A
:1017A00005A80078C1007348411802A80278885C37
:1017B000184388540BE0009B05A80078C1006D48D1
:1017C000411802A80278885C98438854FFE706B065
:1017D0007047C04680B582B000F06EF8782000F007
:1017E000F1FD00F071F8AE200021019100F01BFA2C
:1017F0000199D52000F017FA0199502000F013FA52
:101800000199A82000F00FFA01993F2000F00BFA8F
:101810000199D32000F007FA0199084600F003FA75
:101820000199402000F0FFF901998D2000F0FBF9AB
:101830000199142000F0F7F90199202000F0F3F944
:101840000199022000F0EFF90199A12000F0EBF9D5
:101850000199C02000F0E7F90199DA2000F0E3F9DE
:101860000199122000F0DFF90199812000F0DBF9E5
:101870000199EF2000F0D7F90199D92000F0D3F9B0
:101880000199F12000F0CFF90199DB2000F0CBF9AC
:101890000199302000F0C7F90199A42000F0C3F9A4
:1018A0000199A62000F0BFF90199AF2000F0BBF923
:1018B000FFF71CFF02B080BD80B5012081030E48F8
:1018C000FFF778F880BDC04680B5012081030A4843
:1018D000FFF75EF980BDC04680B50120C103064810
:1018E000FFF768F880BDC04680B50120C1030248FB
:1018F000FFF74EF980BDC04600200A4080B584B095
:1019000003A900200870FFE703A8007807282FDC50
:10191000FFE70398B030C0B20021019100F083F9D5
:101920000199084600F07FF90199102000F07BF939
:10193000019802A90870FFE702A800787F2811DC4F
:10194000FFE702A80078C1000A48401803A90978F7
:10195000405C012100F067F9FFE70298401C02A9F2
:101960000870E9E7FFE70398401C03A90870CBE77C
:1019700004B080BD6400202080B5012001070E481E
:10198000FFF718F880BDC04680B5012001070A485E
:10199000FFF7FEF880BDC04680B50120C1070648AC
:1019A000FFF708F880BDC04680B50120C107024896
:1019B000FFF7EEF880BDC04600000A40B0B58AB01F
:1019C00004460E9809AD2C7008AC217007A90A7066
:1019D00006AA137005AA1070089801AA107007983B
:1019E0002038087003A900200870FFE703A80078DA
:1019F00006A90978884264DAFFE706A800780C286F
:101A00000CD1FFE707A800780C2141432F4840186C
:101A100003A90978405C04A908700AE007A80078C7
:101A200001012948401803A90978405C04A90870FD
:101A3000FFE702A900200870FFE702A80078072846
:101A400039DCFFE704A800780006002809D5FFE785
:101A500009A8007808A9097805AA1278FFF774FE8A
:101A60000AE009A8007808A9097805AA1278534263
:101A70005A41FFF769FEFFE70498400004A9087087
:101A80000898411C08A80170007801A90978401A3B
:101A900006A90978884208D1FFE7019808A90870CB
:101AA0000998401C09A9087005E0FFE70298401C4E
:101AB00002A90870C1E7FFE70398401C03A908705A
:101AC00094E70AB0B0BDC046D03600005C320000DA
:101AD000B0B58CB0044610980BAD2C700AAC2170D8
:101AE000099208A90B7007A9087004A900200870C2
:101AF00006A90870FFE706A8007808A909788842B7
:101B000052DAFFE70998029008990698C0434018F6
:101B1000C1B20A20039000F0E1FC01460298FEF7F2
:101B2000E9FC0399FEF7E6FC05A8017004A800781B
:101B3000002822D1FFE706A8007808A90978491EE5
:101B400088421ADAFFE705A80078002810D1FFE7DD
:101B50000B9807A90B785A080699514340180AA90F
:101B6000097801220092C0B22022FFF727FF16E079
:101B700004A901200870FFE7FFE70B9807A90B787D
:101B80005A080699514340180AA90978059A303233
:101B900001240094C0B2D2B2FFF710FFFFE706980D
:101BA000401C06A90870A6E70CB0B0BD80B586B091
:101BB00005AB187004A801700392FFE70398007842
:101BC00000282ED0FFE705A800787B2808DBFFE778
:101BD00005A9002008700498103004A90870FFE7D8
:101BE00004A800783B2808DBFFE705A9002008705F
:101BF00004A90870FFF77AFDFFE705A802900078B6
:101C000004A90978039A1278012300930C23FFF7A3
:101C1000D5FE02990598083008700398401C03907F
:101C2000CCE706B080BD80B584B003AA107002A8CE
:101C300001700078002803D0FFE7FFF755FE02E0AF
:101C4000FFF74AFEFFE701A900200870FFE701A89F
:101C5000007807281ADCFFE7FFF78EFE03A800785C
:101C60000006002803D5FFE7FFF79EFE02E0FFF71E
:101C700093FEFFE7FFF788FE0398400003A9087072
:101C8000FFE70198401C01A90870E0E7FFF72CFE70
:101C900004B080BD80B584B0039002910192039896
:101CA000009000980299FEF7A7FB002803D1FFE7F8
:101CB00002980090FFE700980199FEF7B9FB002811
:101CC00003D1FFE701980090FFE7009804B080BDC2
:101CD00080B58EB00E2008210291FEF71BFFCA4886
:101CE0000C900421FEF79EFE02990F20FEF712FFD2
:101CF00002990C98FEF796FE00230593019300933A
:101D00000321039118461A46FEF7E8FE0399059B46
:101D100001930093012007901A46FEF7DFFE059815
:101D2000FEF766FE0798FEF763FE14200221049179
:101D3000FEF7F0FE04991520FEF7C4FE0499162064
:101D4000FEF7E8FE04991720FEF7BCFE1E20FEF702
:101D5000AFFE1F20FEF7ACFE0498FEF7A9FE05209B
:101D60000890FEF7A5FE2720FEF780FE1920FEF75B
:101D70009FFE059B0798009342040D201946FEF72D
:101D80007FFE2520FEF794FE2620FEF791FE2320FD
:101D9000FEF78EFE2220FEF78BFE3620FEF766FE53
:101DA0003A20FEF763FE2F20FEF760FE3320FEF799
:101DB0005DFED84809901A490691FEF7F1FD069993
:101DC0000998FEF72FFE07990998C903FEF7D2FE7E
:101DD000089909988904FEF7F1FE099811490A91BA
:101DE000FEF7C4FD09980A99FEF70EFE0C986121D2
:101DF00049020B91FEF7D4FD0B990C98FEF712FEE9
:101E00000C980949FEF7DAFE0C98112109050D918D
:101E1000FEF7ACFD0C980D99FEF7F6FD0EB080BDF7
:101E200000600390800000060001010080B584B0CE
:101E30001B49B9480390FFF71BF903981949FEF7AE
:101E4000A7FF039800230193009319461A46FFF752
:101E5000FBF8019A03981146FFF7E8F8019A0398F6
:101E60001146FFF7FDF8019B0398012102910091B3
:101E700019461A46FFF7E8F80199029A0398FFF706
:101E8000D5F80199029A0398FFF7EAF80398FEF74C
:101E9000B9FF03980321FFF7BFF804B080BDC04627
:101EA000043200000832000080B582B000200190AA
:101EB000FEF70CFF012000904002FEF713FF01988F
:101EC000FEF71EFFFEF7F2FEFEF7F6FE0748FEF7EE
:101ED0008DFE1020FEF722FF0198FEF72BFF0098E1
:101EE000019900F097F902B080BDC04610320000A1
:101EF00080B501200006FEF737FFFEF72FFF80BDFB
:101F000080B582B00849A8480190FFF7B1F8019860
:101F10000649FFF701F801980121FEF77BFF0198C0
:101F2000FEF770FF02B080BD383200003C32000086
:101F300080B582B0124935480190FFF735F9019814
:101F40001049FFF7CFF801980021FFF736F9019803
:101F500015212D22FFF702F90198FFF7A0F801984B
:101F60007021FFF739F901980221FFF747F901982D
:101F7000FFF7A1F80198FFF787F802B080BDC046CF
:101F8000503200005232000080B500F013F8FFF725
:101F90009FFEFFF789FFFFF749FFFFF7B1FFFFF74C
:101FA000C7FFFFF7A5FF0249B8220020885480BD73
:101FB0007404202080B586B056480190FEF7CEFD0F
:101FC00011480290FEF7CAFD53480390FFF71CF832
:101FD00075480490FFF718F80C480590FFF7B2F821
:101FE0000198FEF72BFD0298FEF728FD0398FEF7F7
:101FF0001FFF0498FEF71CFF0598FFF767F81020F5
:10200000FEF79AFC06B080BD00200A400080104018
:1020100080B58EB00D900C910D9801281DDBFFE767
:1020200001200A908103E1480B90FEF7BBFD0A995D
:102030000B984903FEF7D2FC0D98012803DBFFE75C
:102040000D98099003E00D9840420990FFE7099927
:1020500031480022FFF704F81CE0012007904103FB
:10206000D2480890FEF79EFD079908988903FEF76D
:10207000B5FC0D98012803DBFFE70D98069003E0FF
:102080000D9840420690FFE7069923480022FEF78C
:10209000E7FFFFE70C9801281DDBFFE70120049014
:1020A0000104C2480590FEF77DFD04990598490496
:1020B000FEF794FC0C98012803DBFFE70C980390D3
:1020C00003E00C9840420390FFE703991248012275
:1020D000FEF7C6FF1CE0012001904104B3480290C6
:1020E000FEF760FD019902980904FEF777FC0C9851
:1020F000012803DBFFE70C98009003E00C984042B6
:102100000090FFE7009904480122FEF7A9FFFFE7CE
:102110000EB080BD00000A400020864001480068E3
:102120007047C04618E000E080B586B01E48FEF754
:1021300089FE002836D0FFE76420FFF7A3FAFFF7F7
:1021400075FA1A4802900068194901910968FFF769
:1021500007F9019A02990020106008601548039061
:1021600081680068FFF77CF9FEF770F90399486011
:102170001148049081680068FFF7E0F9FEF766F9FE
:10218000049A0146039851604068FEF76AF90146D7
:10219000049805914068FEF764F901460598FFF739
:1021A00037FFFFE706B080BD004008401800202040
:1021B0001C002020440020205400202081B0014633
:1021C0006846017000214056002809D4FFE76846A0
:1021D00001781F2001400120884002490860FFE784
:1021E00001B0704780E200E081B0014668460170AE
:1021F00000214056002809D4FFE7684601781F20D7
:1022000001400120884002490860FFE701B07047A3
:1022100000E100E070B582B0024601A802700091B2
:1022200000214056002816D4FFE7002401A90857D2
:102230000322D3431840174A805809578C07E50EEC
:10224000FF24AC40A043009CA401E4B2AC40204376
:10225000194088501AE001A908780F242040083856
:102260000322D34318400A4A8058002549578D0756
:10227000EE0EFF25B540A843009DAD01EDB2B5407F
:1022800028432140083919408850FFE702B070BD4B
:102290001CED00E000E400E080B582B06946087003
:1022A000012081044148FEF743FC002805D0FFE7E8
:1022B0003F490888401C088003E03D490020088011
:1022C000FFE7012081043948FEF732FC002809D0DD
:1022D000FFE738480078002804D1FFE7354901209E
:1022E0000870FFE73448007800281CD1FFE7314828
:1022F0000078012808D1FFE730490878401C0870B1
:102300002D4901200870FFE72C480078032809D1E7
:10231000FFE72A49002008702949088001A9022006
:1023200008703FE0FFE7012081042048FEF700FC31
:10233000002806D1FFE71F49002008701E490870D9
:10234000FFE71E480078012828D1FFE71C480188D4
:10235000491C0180008869460978884210DDFFE742
:102360001348008869460978884209DAFFE713496B
:10237000002008701249088001A90120087011E0AE
:102380000B48008869460978884206DDFFE70B495B
:10239000002008700A490880FFE7FFE701A9002034
:1023A0000870FFE701A8007802B080BD00000A4075
:1023B0006C042020730420206E042020720420204E
:1023C0007004202080B582B001900198D22803D3F8
:1023D000FFE7D1200190FFE701997D20C00048432D
:1023E00000F002F802B080BD80B586B00590059877
:1023F0001E49884203D3FFE71D480590FFE7059972
:10240000502048430590002000900490FFF786FE7E
:10241000014600980391029001A90870FFE7FFF7B9
:102420007DFE029002980399884204D9FFE701A932
:1024300001200870FFE701A80078002807D0FFE717
:1024400003980299401A0B494018049004E003983D
:102450000299401A0490FFE704980599884201D335
:10246000FFE700E0DBE706B080BDC0463433030081
:1024700033330300FFFFFF0080B582B0019000916D
:10248000FFE70748FEF752FE002801D0FFE7F8E714
:1024900001A801780248FEF7C5FE019802B080BD90
:1024A0000080104080B582B000200190FFF76CFDE5
:1024B00000F09EF9FFE700F0CDF9FCE782B0019053
:1024C0000198002804D5FFE701984042009002E0FF
:1024D00001980090FFE7009802B0704783B002AA0D
:1024E000107001A8017001200090FFE701AA107888
:1024F000411E1170002806D0FFE702A8007800995D
:1025000048430090F2E7009803B0704780B590B060
:10251000A94801218902FDF7EEFDA84A00210F918B
:102520000846FFF743FB0F98A54A0A21FFF73EFB39
:102530000F98A44A14210A91FFF738FB0A99A24A7E
:102540001E200D90FFF732FBE1480E904068FDF72A
:1025500088FFFFF7B3FF0A9902460C200C90009009
:102560002E2004230B93FFF7B3FA0A99974A5220BF
:10257000FFF71CFBD7484068FDF773FFFFF79EFF8E
:102580000A990B9B02460C9800906220FFF7A0FA74
:102590000D990F988E4AFFF709FB0E9880688D49B8
:1025A000FDF70DFE0F99FDF743FF002818D1FFE757
:1025B000894A10201E210991FFF7F8FAC448806863
:1025C0008449FDF7FCFDFDF74CFFFFF777FF099904
:1025D00002460C2000901A200423FFF779FAFFE747
:1025E000BB4880687B49FDF7EAFD0021FDF712FF3B
:1025F000002818D1FFE7794A10201E210891FFF723
:10260000D5FAB34880687349FDF7D9FDFDF729FF76
:10261000FFF754FF089902460C2000901A2004236B
:10262000FFF756FAFFE7AA4800680021FDF700FF10
:10263000002806D1FFE7684A3C201E21FFF7B6FAC2
:10264000FFE7A34800680021FDF7E4FE002806D15B
:10265000FFE7624A3C201E21FFF7A8FAFFE79C48EB
:1026600000685C490691FDF7AAFDFDF7FAFEFFF749
:1026700025FF02460C20009044201E2105910423D2
:10268000FFF726FA0599564A6020FFF78FFA554A58
:10269000002007902821FFF789FA06998D48806865
:1026A000FDF78DFD0799FDF7C3FE002818D1FFE760
:1026B000494A102028210491FFF778FA854880685C
:1026C0004449FDF77CFDFDF7CCFEFFF7F7FE0499CA
:1026D00002460C2000901A200423FFF7F9F9FFE7C7
:1026E0007C4880683B49FDF76AFD0021FDF792FEBA
:1026F000002818D1FFE7394A102028210391FFF75D
:1027000055FA744880683349FDF759FDFDF7A9FE75
:10271000FFF7D4FE039902460C2000901A200423F0
:10272000FFF7D6F9FFE76B4800680021FDF780FE50
:10273000002806D1FFE7284A3C202821FFF736FA77
:10274000FFE7644800680021FDF764FE002806D119
:10275000FFE7224A3C202821FFF728FAFFE75D48DF
:1027600000681C49FDF72BFDFDF77BFEFFF7A6FE79
:1027700002460C2000904420282102910423FFF7F8
:10278000A7F90299164A6020FFF710FA304800684E
:10279000002806D0FFE7154A00203221FFF706FA8D
:1027A00005E0114A00203221FFF700FAFFE7FFF7AA
:1027B000A5F810B080BDC04664002020FF3C00009A
:1027C000043D0000F93C0000F13C0000F43C000036
:1027D000F73C000000007A44EF3C0000ED3C0000B4
:1027E000103D0000FD3C0000E13C0000E73C000023
:1027F00080B582B013480168134A116040681349DC
:102800000860FEF7E7FF01200190FFF7D7FC019871
:10281000FFF7D4FC0198FFF7E7FC0198FFF7E4FC11
:1028200010200090FFF7CAFC0098FFF7DDFC01982C
:10283000074908602749002088602549886002B060
:1028400080BDC04608002020140020201000202059
:102850000400202080B586B0FFE7FFF75FFC0590FD
:10286000059817490968401A00021649884206D39C
:10287000FFE7FFF74BFE059811490860FFE7059851
:1028800011490968401AFF21090688430F49884207
:1028900015D3FFE70E480068FDF7FCFD0390049197
:1028A0000C480068FDF7F6FD039A049B0191009027
:1028B000094800F013F8059803490860FFE7CCE7E2
:1028C000380520200000127A3C052020005A6202C0
:1028D0004400202054002020C03C00000FB410B55C
:1028E00003A9044B044A029800F0F0F810BC08BC9D
:1028F00004B0184779240000000020202021020C99
:1029000001D010211046020A01D0104608390209F0
:1029100001D01046091F820801D01046891E4208C6
:1029200001D0881E7047081A7047000000000000A0
:1029300002E008C8121F08C1002AFAD1704700003F
:102940007047000000000000002001E001C1121FDC
:10295000002AFBD170470000F0B51FB486B009987B
:10296000089A030D0021024314D05148514A181807
:10297000504305141198012810981AD0281A401CA9
:1029800000264D4F4D49009601910490002812DA1F
:10299000444211E01198012449A3012801D1109863
:1029A000C1430698119A84600360C26041600BB015
:1029B000F0BD4042E4E70446210500203F4A001CE8
:1029C00051410391029012E0E00707D032463B46A6
:1029D00001990098FDF730FC0191009032463B468A
:1029E00010461946FDF728FC06460F466410002CD9
:1029F000EAD10498039B0028029A0999089806DAFC
:102A0000FDF71AFC019B009AFDF716FC05E0FDF7A7
:102A10007BFC019B009AFDF777FC04460E460022E2
:102A2000284BFDF729FF03D80020C043014607E0EB
:102A30000022254B20463146FDF74CFEFDF7FCFEFB
:102A4000102409E0002C0ADB0A220023FDF771FDA7
:102A5000079B30321A55641E02460A43F2D11122F6
:102A6000641C079B121B1C19119B012B03D0012313
:102A700008430ED10AE0084304D011201090002032
:102A8000119077E71098151A6D1E0BE0109882428E
:102A900002DD00236D1C03E0824201DA00236D1E7B
:102AA000002BEED0069811998260C16030C07EE79D
:102AB00001FCFFFF104D0000000014400000F03F3B
:102AC000300000000000F0430000E03FFFB597B089
:102AD0000646002518E2252877D100242746FD491F
:102AE000049400E00443761C32780120203A9040A0
:102AF0000842F7D130782A280ED0022230780146D9
:102B00003039092916D804990A2359433039401815
:102B10001443761C0490F1E7189802C804911890A9
:102B2000002904DA012040030443484204900220B3
:102B30000443761C30782E2814D104200443707886
:102B4000761C2A2809D11898761C80C8189009E0AC
:102B50000A214F43303FC719761C3078014630397F
:102B60000929F5D930786C2810D006DC4C281AD009
:102B700068280ED06A2817D104E0742813D07A2868
:102B800012D110E00120400504430CE001210905A9
:102B900001E0032109050C437178814203D1012032
:102BA00000052418761C761C3078119066280BD00E
:102BB00013DC58287DD009DC00287BD04528F6D0CE
:102BC0004628F4D047281AD1A5E118E0632835D06B
:102BD000642870D0652812D19DE170286CD008DC83
:102BE0006728F1D069287BD06E280DD06F2806D1D8
:102BF000BAE073282ED0752871D0782859D01A9A47
:102C0000199990476D1C7EE16002400F022809D09F
:102C100003280DD00428189801680DD00D60001D00
:102C2000189070E11898EA1701680D604A60F6E79D
:102C3000189801680D80F2E70D70F0E718986A4661
:102C400001781172001D18900020507202A80090A7
:102C5000012005E0189802C8189000200091C04398
:102C600061070DD5002101E00199491C0191B9428C
:102C700012DA8142F8DB009A515C0029F4D10BE0B2
:102C8000002101E00199491C01918142FADB019A7E
:102C90000099895C0029F5D1019904981A9B471A7B
:102CA00021463846199A00F097FA019940194518BB
:102CB0000BE04FE02CE113E04EE000980099007823
:102CC000491C00911A9A199990470198401E019049
:102CD000401CF2D1214638461A9B199A10E137E080
:102CE0000A200021009001916002410F022907D0C3
:102CF000189A01CA1892C2179446032908D00AE00C
:102D00001898C01DC108C90005C91891944607E06C
:102D100000B2C2179446042902D140B2C1178C46B2
:102D200000226146944506DA0A460021404291415C
:102D30008C462D2102E0210504D52B216A46117312
:102D4000012103E0E10701D02021F7E7029155E0DE
:102D50000A200AE0102008E0102000900021042042
:102D600004430191082703E008200021019100900D
:102D70006002410F022907D0189A01CA1892002256
:102D80009446032908D008E01898C01DC108C9005E
:102D900005C91891944603E080B2042900D1C0B25D
:102DA00000210291210729D51199702906D0009A96
:102DB0001021019B4A401A4305D00EE040216A468B
:102DC0001173012108E06146014306D030216A46B3
:102DD00011731199517302210291009A0821019BEC
:102DE0004A401A430AD16146014301D1610705D522
:102DF00030216A46117301217F1E029111995829D1
:102E000004D035A10E910DA90D910DE037A1F9E780
:102E10006146019B009AFDF78CFB0E9B8C469B5CE8
:102E20000D9A521E0D92137061460143F0D10D9818
:102E300005A9081A20300190600703D5012000047D
:102E4000844300E001270198874201DD381A00E041
:102E50000020019900904118029809180498401A1E
:102E60000490E00306D421461A9B199A049800F0B6
:102E7000B3F94519002706E003A81A9AC05D19990D
:102E800090476D1C7F1C02988742F5DBE0030CD550
:102E900021461A9B199A049800F09EF9451904E0FE
:102EA0001A9A3020199990476D1C0099481E00907D
:102EB0000029F5DC08E00D980D990078491C0D916A
:102EC0001A9A199990476D1C0199481E0190002982
:102ED000F1DC63E109280100303132333435363713
:102EE0003839616263646566000000003031323356
:102EF00034353637383941424344454600000000F6
:102F000000F05AF94519761C3078002800D0E2E527
:102F100028461BB0F0BD600700D406271898C01DD6
:102F2000C108C90048680A680831C30FDB07189157
:102F3000190001D09CA108E0210501D59BA104E066
:102F4000E10701D09AA100E09AA1430011985B0823
:102F5000109165280CD006DC452809D046281DD0E4
:102F6000472841D141E0662818D067283CD13CE091
:102F70000021112F01DB112000E0781C019100904D
:102F800008A911A8FFF7E8FC139905910021119AEF
:102F900015927F1C12980197009150E00120C00704
:102FA00003900120019008A9009711A8FFF7D4FC15
:102FB000139A149905920022119B0092129815936E
:102FC000059A0192002901D0104602E0791C4018B0
:102FD0000190381A01D5019804E04042401E00904B
:102FE000781C0190C01B029043E0012F00DA0127FA
:102FF0000021112F01DD112000E0384601910090E1
:1030000008A911A8FFF7A8FC13990591119A0021AE
:10301000129815920091019721070CD40599B94295
:1030200001DB019900E00191012904DD159A491E97
:10303000515C302906D0B84201DA011D05DA0121C0
:10304000029115E00199491EEDE7002805DC009981
:10305000411800910199091A03E0019A411C91421B
:1030600000DD01910099401A401C02900120C00728
:103070000390200706D402990198814202DB0020C8
:10308000C043029000206946C87707AF012103982A
:103090000337C907884224D0022011902B201290B8
:1030A000039800280CDA404203902D20129007E08C
:1030B0000A210398FDF71EFA30317F1E0390397004
:1030C0001199481E11900029F2DC03980028EFD1D5
:1030D000791E129808703078202108404530BF1EB4
:1030E000387006A8C01BC01D0390109800780028F7
:1030F00000D00120019941180298C01709180398BF
:1031000009180498401A401E0490E00306D4214692
:103110001A9B199A049800F05FF8451910980078E6
:10312000002803D01A9A199990476D1CE00324D502
:1031300021461A9B199A049800F04EF845191CE094
:103140000098002807DB00990598884203DD159850
:10315000405C199901E0199930201A9A904700981B
:103160006D1C401C00900298401E0290002804D163
:103170001A9A2E20199990476D1C0199481E0190AA
:103180000029DDDC05E038781A9A7F1C19999047F0
:103190006D1C0399481E03900029F4DC21461A9BFC
:1031A000199A0498ACE600002D0000002B000000E6
:1031B0002000000000000000F8B5044600251E466F
:1031C0001746880404D405E039462020B0476D1C1A
:1031D000641EF9D52846F8BDFFB50446002581B028
:1031E0001E46C80301D5302700E02027880404D5F7
:1031F00005E038460399B0476D1C641EF9D5284692
:1032000005B0F0BD08000000401F000020010100D3
:10321000010000000000000000000000400000006D
:103220000000000000000000020000000400000098
:10323000010000002C00C44108001F000200000033
:10324000D33000000100000000000000000000007A
:10325000080000001800000000300000000000001E
:103260000000000000000000000000003F400000DF
:10327000000000000000300040003000400000006E
:1032800009000BC03D000BC03D00090018C02440E0
:103290007FE0224031800000180024C01B000D8018
:1032A0003240018003801C4027401C8007400040C2
:1032B000100060000000000000000000000000009E
:1032C00000001F80204040200000402020401F8040
:1032D00000000000090006001F8006000900000031
:1032E000040004003F80040004000000001000609F
:1032F00000000000000000000400040004000400BE
:103300000400000000000040000000000000000079
:10331000002001C006003800400000001F8020404F
:10332000204020401F800000000010403FC00040AF
:103330000000000018C02140224024401840000036
:1033400010802040244024401B80000002000D001B
:1033500011003FC0014000003C8024402440244034
:10336000238000001F80244024403440038000005C
:103370003000200027C03800200000001B802440BF
:10338000244024401B8000001C0022C02240224018
:103390001F80000000000000084000000000000046
:1033A00000000000046000000000000000000400B5
:1033B0000A001100208040400900090009000900AE
:1033C0000900000000004040208011000A000400B5
:1033D0001800200023402400180000001F80204017
:1033E000274029401F400000004007C039000F005F
:1033F00001C0004020403FC0244024401B8000000A
:103400001F802040204020403080000020403FC0EE
:10341000204020401F80000020403FC024402E401C
:1034200030C0000020403FC024402E00300000008B
:103430000F001080204022403380020020403FC017
:10344000040004003FC02040204020403FC02040F6
:10345000204000000060202020203FC020002000ED
:1034600020403FC024400B0030C0204020403FC0DF
:1034700020400040004000C03FC03C0003C03C0072
:103480003FC0000020403FC00C4023003FC0200050
:103490001F802040204020401F80000020403FC06F
:1034A00024402400180000001F802140214020E01B
:1034B0001FA0000020403FC02440260019C000404B
:1034C00018C02440244022403180000030002040B9
:1034D0003FC020403000000020003F8000400040FE
:1034E0003F80200020003E0001C00700380020007F
:1034F000380007C03C0007C038000000204039C039
:10350000060039C0204000002000384007C0384085
:1035100020000000304021C02640384020C000007C
:10352000000000007FE0402040200000000070000C
:103530000C000380004000000000402040207FE09D
:1035400000000000000020004000200000000000FB
:10355000001000100010001000100010000000000B
:10356000400000000000000000000280054005400F
:1035700003C0004020003FC004400440038000001E
:103580000000038004400440064000000000038067
:10359000044024403FC00040000003800540054037
:1035A00003400000000004401FC0244024402000CD
:1035B000000002E0055005500650042020403FC0A6
:1035C0000440040003C000400000044027C0004045
:1035D0000000000000100010041027E000000000B0
:1035E00020403FC00140070004C00440204020406C
:1035F0003FC000400040000007C0040007C00400B6
:1036000003C00000044007C00440040003C00040A1
:10361000000003800440044003800000041007F011
:103620000450044003800000000003800440045064
:1036300007F00010044007C002400400040000002E
:10364000000006400540054004C0000000000400E2
:103650001F80044000400000040007800040044038
:1036600007C000400400070004C0018006000400F9
:10367000060001C0070001C006000000044006C0AB
:10368000010006C0044000000410071004E001809F
:10369000060004000000044005C00640044000008D
:1036A0000000000004007BE040200000000000005B
:1036B0000000FFF000000000000040207BE004005C
:1036C000000000004000800040002000200040007A
:1036D00000000000000000000000000000000000EA
:1036E0000000000000001FCC000C000000000000E3
:1036F000000008003000600008003000600000009A
:10370000022003FC1E20022003FC1E2002200000D9
:1037100000000E1811043FFF10840C780000000018
:103720000F0010840F3800C007781884007800005C
:1037300000780F8410C411240E9800E4008400085F
:103740000800680070000000000000000000000099
:1037500000000000000007E01818200440020000EC
:10376000000040022004181807E0000000000000DC
:103770000240024001800FF0018002400240000040
:103780000080008000800FF8008000800080000032
:103790000001000D000E000000000000000000000D
:1037A0000000008000800080008000800080008099
:1037B0000000000C000C00000000000000000000F1
:1037C00000000006001800600180060018002000BC
:1037D000000007F0080810041004080807F00000B3
:1037E0000000080408041FFC00040004000000009E
:1037F00000000E0C10141024104411840E0C000054
:1038000000000C1810041104110412880C70000040
:10381000000000E00320042408241FFC0024000012
:1038200000001F981084110411041088107000000B
:10383000000007F0088811041104188800700000C7
:1038400000001C00100010FC13001C001000000001
:1038500000000E3811441084108411440E3800000A
:1038600000000700088C10441044088807F000008E
:10387000000000000000030C030C0000000000002A
:103880000000000000010106000000000000000030
:10389000000000800140022004100808100400000D
:1038A000022002200220022002200220022000002A
:1038B00000001004080804100220014000800000ED
:1038C00000000E001200100C106C10800F000000A1
:1038D00003E00C1813E4142417C4082807D00000D0
:1038E0000004003C03C41C40074000E4001C00042A
:1038F00010041FFC1104110411040E880070000054
:1039000003E00C1810041004100410081C10000030
:1039100010041FFC100410041004080807F0000035
:1039200010041FFC1104110417C41004081800002F
:1039300010041FFC1104110017C010000800000043
:1039400003E00C181004100410441C780040000020
:1039500010041FFC10840080008010841FFC1004E1
:103960000000100410041FFC1004100400000000EC
:1039700000030001100110011FFE100010000000E4
:1039800010041FFC110403801464181C10040000B0
:1039900010041FFC1004000400040004000C0000CC
:1039A00010041FFC1F0000FC1F001FFC100400007F
:1039B00010041FFC0C04030000E010181FFC100092
:1039C00007F00808100410041004080807F00000AD
:1039D00010041FFC10841080108010800F00000065
:1039E00007F0081810241024101C080A07F2000021
:1039F00010041FFC1104110011C011300E0C000442
:103A000000000E1C11041084108410441C380000A7
:103A10001800100010041FFC100410001800000013
:103A200010001FF810040004000410041FF8100018
:103A300010001E0011E0001C007013801C0010001C
:103A40001FC0103C00E01F0000E0103C1FC0000041
:103A50001004180C163401C001C01634180C1004E0
:103A600010001C00130400FC13041C0010000000D4
:103A70000804101C1064108413041C0410180000A7
:103A80000000000000007FFE4002400240020000F3
:103A9000000030000C0003800060001C00030000E8
:103AA00000004002400240027FFE000000000000D3
:103AB0000000000020004000400040002000000006
:103AC00000010001000100010001000100010001EE
:103AD0000000400040002000000000000000000046
:103AE00000000098012401440144014400FC00044A
:103AF00010001FFC00880104010400880070000011
:103B00000000007000880104010401040088000026
:103B10000000007000880104010411081FFC00046B
:103B2000000000F8014401440144014400C80000C1
:103B30000000010401040FFC11041104110018001D
:103B4000000000D601290129012901C90106000050
:103B500010041FFC008401000100010400FC0004AB
:103B600000000104190419FC000400040000000016
:103B70000000000300010101190119FE000000000E
:103B800010041FFC0024004001B4010C01040000DB
:103B90000000100410041FFC0004000400000000DA
:103BA000010401FC0104010001FC0104010000FC0E
:103BB000010401FC008401000100010400FC000478
:103BC000000000F8010401040104010400F80000F1
:103BD000010101FF0085010401040088007000005C
:103BE00000000070008801040104010501FF0001CC
:103BF0000104010401FC00840104010001800000B3
:103C0000000000CC012401240124012401980000BB
:103C100000000100010007F8010401040000000099
:103C2000010001F8000400040004010801FC000484
:103C3000010001800170000C001001600180010092
:103C400001F0010C003001C00030010C01F0010056
:103C500000000104018C00740170018C010400005B
:103C6000010101810171000E001801600180010055
:103C700000000184010C013401440184010C0000A6
:103C8000000000000000000001003EFC4002400275
:103C90000000000000000000FFFF00000000000026
:103CA0000000400240023EFC010000000000000055
:103CB00000006000800080004000400020002000E4
:103CC0004D415F563A252E326C66206D2F732009C8
:103CD0004D425F563A252E326C66206D2F730D0AC9
:103CE0000052554E20200053544F5020002B002DE1
:103CF000004C3A00523A004C0050574D00520044DC
:103D0000696666004B65795F436F6E74726F6C0015
:103D10006D6D2F7300000000383D00000000202072
:103D20001800000030290000503D0000180020203D
:103D300028150000482900000000000001000000D4
:103D40000000C84300009643000096430000C843AB
:04000005000000C136
:00000001FF
